:1000000012C02CC02BC02AC029C028C027C026C0BF
:1000100025C024C023C022C021C020C01FC01EC0D4
:100020001DC01CC01BC011241FBECFE5D4E0DEBF25
:10003000CDBF11E0A0E6B0E0EEE0F9E002C005902F
:100040000D92AA38B107D9F713E0AAE8B1E001C0D0
:100050001D92AA3AB107E1F7A4D357C4D1CF680FD4
:10006000791FCB0108959C01261B370BC901089508
:10007000EF92FF920F931F937B010027F7FC0095EF
:10008000102F9C01442737FD4095542FC801B7011C
:10009000ADD39B01AC0120583F4F4F4F5F4F232FF3
:1000A000342F452F552747FD5A95C9011F910F91B0
:1000B000FF90EF9008959B01AA2797FDA095BA2F76
:1000C000BA2FA92F982F8827442737FD4095542F02
:1000D000BC01CD01DDD3C90108959C0197FF03C088
:1000E000309521953F4FC9010895282F662311F4BB
:1000F000929801C0929A82B3922F907F8F70982B22
:1001000092BB939A94E0892F8A95F1F7939882B3E2
:100110002295207F8F70822B82BB939A9A95F1F75C
:1001200093988AE591E00197F1F708950F931F9353
:1001300081E060E0DADF0CE81DE0C8010197F1F72B
:1001400080E860E0D2DFC8010197F1F71F910F91BD
:100150000895CF93DF93EC0103C0219661E0C5DFE2
:1001600088818823D1F7DF91CF9108951F93182FAD
:1001700064E65BD3805D61E0B8DF812F6AE055D330
:1001800054D3892F805D61E0B0DF812F6AE04DD3C9
:10019000892F805D61E0A9DF1F910895813029F4E6
:1001A000862F815860E0A1DF0895823021F4862FE8
:1001B000815460E09ADF08950F931F938FEF81BB06
:1001C00088EC90E02AE531E0F9013197F1F70197E9
:1001D000D9F780E360E089DF8FEB93E40197F1F7D3
:1001E00080E360E082DF0CE81DE0C8010197F1F7D1
:1001F00080E360E07ADFC8010197F1F782E060E018
:1002000074DF88E260E071DF8CE060E06EDF86E042
:1002100060E06BDF8BDF1F910F910895CF92DF922B
:10022000EF92FF921F93CF93DF9380E460E05DDF56
:10023000C7E0D0E087E0C82ED12C17C080E061E095
:1002400054DF1F5F812F90E08C179D07BCF310E0F7
:1002500004C08FE161E049DF1F5F812F90E0E81665
:10026000F906BCF72197CC2329F010E07601EC1AAF
:10027000FD0AE8CFDF91CF911F91FF90EF90DF90C3
:10028000CF9008950F931F93082F162F693288F48B
:10029000683080F481E0602F81DF80E261E025DF5B
:1002A00082E0602F7BDF123010F480E017C0812FD6
:1002B00014C018E282E0602F71DF8FEF61E015DF7C
:1002C00081E0602F6BDF612F68506695669541F085
:1002D000683010F08FEF02C0862F815061E005DF9B
:1002E0001F910F910895A09880EE87B986E886B98E
:1002F0000895CF93DF9340E0369A3699FECF85B1CB
:1003000090E080589040AA2797FDA095BA2FE42F3F
:10031000F0E0EE0FFF1FEE0FFF1F9F0126553E4F2F
:1003200056E0880F991FAA1FBB1F5A95D1F7E90104
:1003300099838883E455FE4F118210824F5F4038C5
:10034000D9F6DF91CF910895DC01FB018081918185
:100350002D913C9111978227932711969C938E9310
:100360002081318128273927318320838D919C91E9
:100370001197822793278D939C930895AEEAB1E05D
:1003800040E050E024C0480F541700F5E42FF0E09F
:10039000EE0FFF1FEE0FFF1FE655FE4F808191818C
:1003A0002D913C9111978227932711969C938E93C0
:1003B0002081318128273927318320838D919C9199
:1003C00011978227932711969C938E93149680E41D
:1003D00002C0481B86954817E0F75F5F5F3799F6C4
:1003E0000895EF92FF920F931F93CF93DF937C01B9
:1003F000C62FD0E0CC0FDD1FC657DE4F6881798154
:1004000080E890E035DE8C0180E890E0B70130DED6
:100410009C01200F311F39832883C901DF91CF91BF
:100420001F910F91FF90EF900895FF920F931F93EC
:10043000CF93DF9300E010E0F02EF801E658FE4F76
:100440008081C82FD0E084E0801788F0CC0FDD1FBA
:10045000CC0FDD1FC655DE4F8881998164E070E0C6
:1004600004D2CB01AA2797FDA095BA2F30C0FE0178
:10047000EE0FFF1FEE0FFF1FE655FE4FCC0FDD1FE7
:10048000CC0FDD1FDE01AA55BE4F808191812D91D9
:100490003C91820F931FC255DE4F28813981820F14
:1004A000931F60E073E007DEAA2797FDA095BA2F9F
:1004B000F6E0880F991FAA1FBB1FFA95D1F7BC0160
:1004C000CD0120E031E040E050E0E2D1C9016F2DE4
:1004D00088DF9C01442737FD4095542F8F2D8F5F77
:1004E000622FD0DE0F5F1F4F0031110509F0A4CF3E
:1004F000DF91CF911F910F91FF9008950F931F935C
:10050000CF93DF930AEA11E0F80180819181E5DD64
:10051000EC01F80182819381E0DD8C179D0744F4A2
:10052000959587958C0F9D1FF8019183808307C057
:10053000D595C795C80FD91FF801D183C0830C5F2B
:100540001F4FF2E00A3A1F07F9F6DF91CF911F9192
:100550000F910895FF920F931F93FF240F2D10E02A
:10056000000F111FF801E658FF4F6081718180E094
:1005700091E079DDBC0180E890E07ADDBC01000FFC
:10058000111F06551E4FF8018081918171DDF80120
:1005900091838083F394F0E8FF1601F71F910F9188
:1005A000FF9008952F923F924F926F927F928F9279
:1005B0009F92AF92BF92CF92DF92EF92FF920F93F2
:1005C0001F93DF93CF93CDB7DEB72F970FB6F89475
:1005D000DEBF0FBECDBF42E0242E312C1A8219821D
:1005E000C101969587958F8380E890E0B10129D16C
:1005F0006E8344243F81232F30E03D872C8789C0C0
:100600008B81E82EFF249C81092F10E0000F111F21
:10061000F801E658FF4F60807180EE0CFF1CEE0C75
:10062000FF1C8AEAA82E81E0B82EAE0CBF1CF50193
:1006300080819181B3011CDD6C0106541F4FF801CC
:10064000808091802CEA31E0E20EF31EF701808178
:100650009181B4010DDDBC01C60105DD9987888754
:10066000F70180819181B30103DD8C01F501808167
:100670009181B401FDDCBC01C801F1DC4C012E8587
:100680003F85220F331F220F331F3F872E87EAEA51
:10069000CE2EE1E0DE2EC20ED31EF60180819181C6
:1006A00068857985E0DCF501918380830E851F855F
:1006B00004551E4FF80180819181B401D4DCF7010B
:1006C00091838083F6018081918168857985C7DC7B
:1006D000F60191838083F80180819181B401BFDCB0
:1006E000F80191838083FD81FF5FFD832C813E8132
:1006F000230F2C838B818F5F8B83FD81EF2FF0E0A5
:10070000FF87EE872A853B85E217F3070CF478CF45
:10071000420C47FC0CC03F81340D3B834D821C8250
:100720008C859D85840D911D9B878A87E6CF220C41
:10073000331CE981FA813196FA83E983379709F00E
:100740004FCFEAEAF1E08081918160E870E08DD0DE
:10075000718360838281938160E870E086D07383C7
:100760006283349622E0EA3AF20769F72F960FB6D1
:10077000F894DEBF0FBECDBFCF91DF911F910F91D7
:10078000FF90EF90DF90CF90BF90AF909F908F90B1
:100790007F906F904F903F902F900895EFDD02DF94
:1007A00008951F93A09880EE87B986E886B904DD86
:1007B00035DDBCDC80E690E0CCDC82E061E0EEDCA4
:1007C0008CE690E0C6DC80E29EE42AE531E0F901A7
:1007D0003197F1F70197D9F711E08BDDBBDEDEDF52
:1007E0008DDE23DE82B3812782BBF7CF629FD001EB
:1007F000739FF001829FE00DF11D649FE00DF11DDC
:10080000929FF00D839FF00D749FF00D659FF00D8A
:100810009927729FB00DE11DF91F639FB00DE11D77
:10082000F91FBD01CF0111240895991B79E004C07F
:10083000991F961708F0961B881F7A95C9F780951F
:100840000895AA1BBB1B51E107C0AA1FBB1FA61717
:10085000B70710F0A61BB70B881F991F5A95A9F769
:1008600080959095BC01CD01089597FB092E072630
:100870000AD077FD04D0E5DF06D000201AF4709589
:1008800061957F4F0895F6F7909581959F4F089554
:1008900097FB092E05260ED057FD04D014D00AD0A0
:1008A000001C38F450954095309521953F4F4F4F9F
:1008B0005F4F0895F6F790958095709561957F4FFD
:1008C0008F4F9F4F0895A1E21A2EAA1BBB1BFD015B
:1008D0000DC0AA1FBB1FEE1FFF1FA217B307E4071F
:1008E000F50720F0A21BB30BE40BF50B661F771F77
:1008F000881F991F1A9469F7609570958095909557
:0E0900009B01AC01BD01CF010895F894FFCF1B
:10090E0041544D65676138204646540042573A209F
:10091E0035302D38303030487A000001FF00FE00AF
:10092E00FD00FB00F800F400F100EC00E700E10030
:10093E00DB00D400CD00C500BD00B500AB00A200A9
:10094E0098008E00830078006D00610056004A000A
:10095E003E003100250019000C000000F4FFE7FFF7
:10096E00DBFFCFFFC2FFB6FFAAFF9FFF93FF88FFFB
:10097E007DFF72FF68FF5EFF55FF4BFF43FF3BFF9E
:10098E0033FF2CFF25FF1FFF19FF14FF0FFF0CFF76
:10099E0008FF05FF03FF02FF01FF00FF01FF02FF3B
:1009AE0003FF05FF08FF0CFF0FFF14FF19FF1FFFCA
:1009BE0025FF2CFF33FF3BFF43FF4BFF55FF5EFF31
:1009CE0068FF72FF7DFF88FF93FF9FFFAAFFB6FFB0
:1009DE00C2FFCFFFDBFFE7FFF4FF00000C001900A2
:1009EE00250031003E004A00560061006D0078007F
:1009FE0083008E009800A200AB00B500BD00C500BC
:100A0E00CD00D400DB00E100E700EC00F100F400C3
:100A1E00F800FB00FD00FE00FF0001020406080CBA
:0A0A2E000F13171B1F23262E363E60
:00000001FF
